:040000004AEF00F0D3
:10000800FACF04F0FBCF05F0E9CF06F0EACF07F00E
:10001800E1CF08F0E2CF09F0D9CF0AF0DACF0BF040
:10002800F3CF0CF0F4CF0DF0F6CF0EF0F7CF0FF0C2
:10003800F8CF10F0F5CF11F0000EF66E000EF76E47
:10004800180EF86E0800F5CF02F0ECEC00F0F29212
:1000580000D011C0F5FF10C0F8FF0FC0F7FF0EC0A9
:10006800F6FF0DC0F4FF0CC0F3FF0BC0DAFF0AC0A7
:10007800D9FF09C0E2FF08C0E1FF07C0EAFF06C0D8
:10008800E9FF05C0FBFF04C0FAFF110026EF02F0EC
:10009800240E126EE70EE82EFED7122EFCD7000EA5
:1000A800F66E000EF76E1A0EF86E380EF56E0C002E
:1000B800120E126EF30EE82EFED7122EFCD7000E8B
:1000C800F66E000EF76E1A0EF86E380EF56E0C000E
:1000D800040E126E950EE82EFED7122EFCD700D015
:1000E800000EF66E000EF76E1A0EF86E380EF56EEC
:1000F8000C00040E126E950EE82EFED7122EFCD7B9
:1001080000D0000EF66E000EF76E1A0EF86E380E5E
:10011800F56E0C00040E126E950EE82EFED7122E08
:10012800FCD700D0000EF66E000EF76E1A0EF86EB1
:10013800140EF56E0C00040E126E950EE82EFED706
:10014800122EFCD700D0000EF66E000EF76E1A0EB7
:10015800F86E0E0EF56E0C00040E126E950EE82E5B
:10016800FED7122EFCD700D0000EF66E000EF76EEA
:100178001A0EF86E060EF56E0C00040E126E950E31
:10018800E82EFED7122EFCD700D0000EF66E000E19
:10019800F76E1A0EF86E020EF56E0C00080E126E4F
:1001A8002C0EE82EFED7122EFCD700D0000EF66ECD
:1001B800000EF76E1A0EF86E010EF56E0C00080EA2
:1001C800126E2C0EE82EFED7122EFCD700D012008D
:1001D80002500F0B026E73D086D085D0000EF66EDB
:1001E800000EF76E1A0EF86E100EF56E0C00080E63
:1001F800036E2C0EE82EFED7032EFCD700D0FAECA7
:1002080001F071D0000EF66E000EF76E1A0EF86E41
:10021800140EF56E0C00080E036E2C0EE82EFED799
:10022800032EFCD700D0FAEC01F05DD0000EF66E7C
:10023800000EF76E1A0EF86E010EF56E0C00080E21
:10024800036E2C0EE82EFED7032EFCD700D0FAEC56
:1002580001F0000EF66E000EF76E1A0EF86E020E22
:10026800F56E0C00080E036E2C0EE82EFED7032E3A
:10027800FCD700D0FAEC01F036D0000EF66E000E76
:10028800F76E1A0EF86EC00EF56E0C00080E036EAF
:100298002C0EE82EFED7032EFCD700D0FAEC01F086
:1002A80022D0020EF66E000EF76E1A0EF86E02508D
:1002B800300FF56E0C00FAEC01F015D014D0025096
:1002C8000A0AD8B410D0010AD8B40DD0070AD8B495
:1002D80085D7010AD8B496D7030AD8B4A7D7010A94
:1002E800D8B4CBD7DED712009FEC01F04CEC00F06D
:1002F800D4EC01F02FEC02F0E9EC01F00BEC02F089
:1003080000D015041610D8A401D001D0FAD719ECE2
:1003180002F00F010F011C6F146E050E136E1450BE
:10032800BDEC01F0000E166E000E156EEAD7E9D787
:10033800E8D74AEF00F0A00E0F010F01266F0F015A
:100348000F01269FD09EF29CF28EF288F292000E48
:100358000F010F01256F000E0F010F01246F000E12
:100368000F010F01236F000E956E9968040E986EA9
:100378001200000EF66E000EF76E1A0EF86E010EE1
:10038800F56E0C00E9EC01F0020EF66E000EF76E49
:100398001A0EF86E13C0F5FF0C00E9EC01F012001C
:1003A800200E0F010F01216F900E0F010F01226F18
:1003B800000E0F010F01206F000E0F010F011F6FBC
:1003C800110E0F010F011E6F120001D000D0000E98
:1003D800F66E000EF76E1A0EF86E0800F5CF12F0E2
:1003E80012BE01D001D0F3D700D0120001D000D046
:1003F800000EF66E000EF76E1A0EF86E0800F5CFB6
:1004080001F001BE01D001D0F3D700D01200000ED8
:10041800C76E000EC66EC68AC650F00B0809C66EB7
:10042800000EC56E1A0EC86E1200000EF66E000E93
:10043800F76E180EF86E0800F5503F0B126E12504A
:1004480000D012001A6A196A186A176A166A156AB9
:10045800000178EF01F0000EF26EF28CF28EF28855
:02046800120080
:020000040020DA
:08000000FFFFFFFFFFFFFFFF00
:020000040030CA
:0E0000001D036100018B81FFFFC0FFE0FF4088
:00000001FF
