:020000040000FA
:04000000CAEF0BF048
:101000000048656C6C6F0000056EC580C5B00BEFC5
:1010100008F00DEF08F006EF08F005C0C9FF9E9636
:101020009EA615EF08F017EF08F010EF08F0C5BC0A
:101030001CEF08F01EEF08F017EF08F001C0C9FF21
:101040009E969EA626EF08F028EF08F021EF08F004
:10105000C5BC2DEF08F02FEF08F028EF08F0C58091
:10106000C5B035EF08F037EF08F030EF08F005288D
:10107000C96E9E969EA63FEF08F041EF08F03AEF4A
:1010800008F0C5BC46EF08F048EF08F041EF08F063
:101090009E96C5869EA64FEF08F051EF08F04AEFE6
:1010A00008F003C0D9FF04C0DAFFC9CFDFFF9E9666
:1010B000010E066E78EF08F0C59AC5889EA663EF0C
:1010C00008F065EF08F05EEF08F0C5869E969EA6D4
:1010D0006CEF08F06EEF08F067EF08F0065003249D
:1010E000D96E000E0420DA6EC9CFDFFF9E96062A65
:1010F0000250065CD8A07FEF08F081EF08F05CEFAB
:1011000008F0C58AC5889EA688EF08F08AEF08F027
:1011100083EF08F09E96C5849EA691EF08F093EFAA
:1011200008F08CEF08F09E961200000E096E000E7B
:10113000906E1F0E916E000E996E000E9A6E919A2F
:10114000918C9198040E6EEC0BF091880C0E6EEC65
:101150000BF0BCEF08F0092A0C0E6EEC0BF0C80E79
:101160000964B5EF08F0B7EF08F0BCEF08F08B8228
:101170008F808B94000E096EFFEC0AF00009D8B442
:10118000C4EF08F0C6EF08F0ABEF08F00F0E056EE5
:10119000210E066E270E76EC0AF0000E056E220E6A
:1011A000066E000E76EC0AF0000E056E240E066E3A
:1011B000000E76EC0AF07B0E056E400E066E000EF9
:1011C00076EC0AF0000E056E410E066E280E76ECE7
:1011D0000AF0800E056E420E066E000E76EC0AF0E6
:1011E000000E056E430E066E280E76EC0AF0800E99
:1011F00085EC0BF09C0E85EC0BF0A00E85EC0BF053
:10120000700E056E020ED8EC0AF0120056EC0BF0D0
:1012100095EC08F0BFEC0BF0D3EC0BF097EC0BF077
:101220001CEC0BF039EC0BF0000E096E000EFFEC1D
:1012300009F0010E086E100E096EADEC0AF0000EFA
:10124000016E200E026EA00EB8EC09F0010E016EC8
:10125000030E026E130E036E000E046EA00E04EC5D
:1012600008F0000E096E020EFFEC09F0155070EC4C
:1012700009F0020E096E020EFFEC09F0145070EC3A
:1012800009F0040E096E020EFFEC09F0135070EC29
:1012900009F083B64EEF09F050EF09F026EF09F0A0
:1012A000010E016E000E026EA00EB8EC09F0020EE7
:1012B000016E000E026EA00EB8EC09F0030E016E76
:1012C000000E026EA00EB8EC09F083A66AEF09F0DA
:1012D0006CEF09F065EF09F026EF09F000EF00F080
:1012E000086E08380F0B096E090E09647AEF09F0D1
:1012F0007CEF09F081EF09F00950170F096E87EFB5
:1013000009F00950100F096E87EF09F000F0C00EC8
:10131000056E0950D8EC0AF00009D8B492EF09F034
:1013200094EF09F086EF09F008500F0B096E090ED3
:1013300009649DEF09F09FEF09F0A4EF09F009504F
:10134000170F096EAAEF09F00950100F096EAAEFE6
:1013500009F000F0C00E056E0950D8EC0AF0000943
:10136000D8B4B5EF09F0B7EF09F0A9EF09F0120012
:10137000036EC580C5B0BFEF09F0C1EF09F0BAEF49
:1013800009F003C0C9FF9E969EA6C9EF09F0CBEFF6
:1013900009F0C4EF09F0C5BCD0EF09F0D2EF09F0B5
:1013A000CBEF09F001C0C9FF9E969EA6DAEF09F0C7
:1013B000DCEF09F0D5EF09F0C5BCE1EF09F0E3EF90
:1013C00009F0DCEF09F002C0C9FF9E969EA6EBEF84
:1013D00009F0EDEF09F0E6EF09F0C5BCF2EF09F016
:1013E000F4EF09F0EDEF09F09E96C5849EA6FBEFA1
:1013F00009F0FDEF09F0F6EF09F09E9612000C6E71
:101400007B0E0E6E000E0D6E0F0E0C640AEF0AF0CE
:101410000CEF0AF00EEF0AF0000E0C6E270E0964B6
:1014200014EF0AF016EF0AF018EF0AF0000E096E3A
:101430000C50280DF3CF0AF0F4CF0BF009500A2618
:10144000000E0B220D500A240D6E0E500B200E6E56
:101450002BEF0AF000F00E50056E240E066E0D50B4
:1014600076EC0AF00009D8B438EF0AF03AEF0AF047
:101470002AEF0AF01200000E026E020E046E6BEFED
:101480000AF0996891809196919200F087CF03F0CD
:10149000918291860350030B036E030E0318D8B498
:1014A00054EF0AF056EF0AF069EF0AF0022A0C0E28
:1014B0006EEC0BF0F90E026460EF0AF062EF0AF0D6
:1014C0006BEF0AF08B948B828F80000E046E6BEFB3
:1014D0000AF0010E046E020E0418D8B472EF0AF07E
:1014E00074EF0AF041EF0AF004501200076E000E8C
:1014F000086E3BEC0AF0E806D8A481EF0AF083EF0F
:101500000AF0ABEF0AF00C0E6EEC0BF00750A5ECF6
:101510000BF03BEC0AF0E806D8A491EF0AF093EF49
:101520000AF0ABEF0AF00C0E6EEC0BF00550A5ECD8
:101530000BF03BEC0AF0E806D8A4A1EF0AF0A3EF09
:101540000AF0ABEF0AF00C0E6EEC0BF00650B2ECAA
:101550000BF0010E086E08501200C7EF0AF000F001
:10156000C00E056E08C0F6FF09C0F7FF000EF86E4A
:101570000800F550E00FD8EC0AF00009D8B4C3EF2A
:101580000AF0C5EF0AF0AFEF0AF0084A092A08C0CE
:10159000F6FF09C0F7FF000EF86E0800F5500009CD
:1015A000D8A4D5EF0AF0D7EF0AF0B0EF0AF0120096
:1015B000066E000E076E3BEC0AF0E806D8A4E3EFD7
:1015C0000AF0E5EF0AF0FDEF0AF00C0E6EEC0BF0FE
:1015D0000650A5EC0BF03BEC0AF0E806D8A4F3EFBC
:1015E0000AF0F5EF0AF0FDEF0AF00C0E6EEC0BF0CE
:1015F0000550B2EC0BF0010E076E0750120099680F
:1016000091809196919200F000F000F087CF01F068
:10161000918291860150030B030AD8A412EF0BF0BC
:1016200014EF0BF018EF0BF0010E016E1AEF0BF038
:10163000000E016E01501200000E056E240E066EA3
:10164000000E76EC0AF0000E0A6E000E096EC00E57
:10165000056E000ED8EC0AF0094A0A2A800E0A1814
:101660000910D8A436EF0BF038EF0BF027EF0BF092
:101670001200800E056E240E066E000E76EC0AF047
:10168000800E0A6E000E096EC00E056E000ED8ECBC
:101690000AF0094A0A2AF80E0A180910D8A453EFCA
:1016A0000BF055EF0BF044EF0BF01200A00E0F0102
:1016B000266F030E256F080E246F000E236F8B9488
:1016C0008B928F90929492969298929A94949492EC
:1016D000989094869488F19E538D1200016E7CEF51
:1016E0000BF000F000F000F000F000F000F000F06F
:1016F00000F000F000F001060150D8A482EF0BF0DA
:1017000084EF0BF071EF0BF01200056E3BEC0AF06A
:10171000E806D8A48EEF0BF090EF0BF096EF0BF0ED
:101720000C0E6EEC0BF00550B2EC0BF01200000E3C
:10173000C76E000EC66EC650F00B0809C66E000ECE
:10174000C56E770EC86EC68A1200016E01C090FF8A
:10175000000E996E91909196919400F000F0918412
:1017600091861200016E01C090FF000E996E91806B
:101770009196919400F000F0918491861200000EF1
:10178000686E310E676E9598959C979E8E8EA19A85
:10179000678A120000EE0FF0070EEE6AE806FDE120
:0817A000000106EF09F0120040
:020000040020DA
:08000000FFFFFFFFFFFFFFFF00
:020000040030CA
:0E00000015136100308081FFFFC0FFE0FF405C
:00000001FF
