:0400000058EF00F0C5
:10000800FACF0EF0FBCF0FF0E9CF10F0EACF11F0E6
:10001800E1CF12F0E2CF13F0D9CF14F0DACF15F018
:10002800F3CF16F0F4CF17F0F6CF18F0F7CF19F09A
:10003800F8CF1AF0F5CF1BF0F2A201D001D017D0FB
:10004800F2A801D001D013D0E9EC00F01C6E1CC05E
:1000580007F0086A5AEC00F01CC001F049EC01F006
:100068001CC001F041EC01F0F29201D000D01BC09D
:10007800F5FF1AC0F8FF19C0F7FF18C0F6FF17C040
:10008800F4FF16C0F3FF15C0DAFF14C0D9FF13C080
:10009800E2FF12C0E1FF11C0EAFF10C0E9FF0FC084
:1000A800FBFF0EC0FAFF110051EF01F007C001F08D
:1000B80008C002F0A9EC00F001C00AF002C00BF081
:1000C800000EF66E000EF76E1A0EF86E010EF56E43
:1000D8000C0019EC01F00A040B10D8A401D001D0CF
:1000E8000CD0020EF66E000EF76E1A0EF86E07C0F0
:1000F800F5FF0C0019EC01F027D0000E0D6E010E73
:100108000C6E14D0020EF66E000EF76E1A0EF86E14
:100118000C500724D96E0D500820DA6EDF50F56EAA
:100128000C0019EC01F00C4A0D2A00D00D50800A81
:10013800096E0A500C5C0B50800A0958D8A001D0EF
:1001480001D0E0D701D000D0120001C005F002C0F4
:1001580006F003D0054A062A00D005C0D9FF06C01C
:10016800DAFFDF50D8A401D001D0F4D700D001C005
:1001780003F002C004F0031E041E034A042A0550BB
:100188000324016E06500420026E00D01200A00E57
:100198000F010F01266F0F010F01269FD09EF29CC1
:1001A800F28EF288F292000E0F010F01256F000EF9
:1001B8000F010F01246F000E0F010F01236F000EB6
:1001C800956E9968040E986E1200016E000E026E0C
:1001D8000150000EF66E000EF76E180EF86E08004D
:1001E800F5500009D8B401D001D005D0016E010E38
:1001F800026E015000D00250300F00D01200110ED4
:100208000F010F011E6F0F010F0121990F010F013F
:10021800218B0F010F01228F0F010F0122890F017E
:100228000F01209798929884120001D000D0000EF8
:10023800F66E000EF76E1A0EF86E0800F5CF01F094
:1002480001BE01D001D0F3D700D01200110EAF6E5D
:10025800AC98AC8AAB8EAB880F010F012097949CA9
:10026800948E1200CBEC00F057EC01F02AEC01F070
:1002780003EC01F0FFD758EF00F000D09EA801D0A2
:1002880001D0FCD701C01CFF120000D09EA801D0ED
:1002980001D0FCD701C0ADFF12001F6A1E6A1D6A9B
:1002A800000136EF01F0000EF26EF28CF28EF28849
:0202B800120032
:020000040020DA
:08000000FFFFFFFFFFFFFFFF00
:020000040030CA
:0E0000001D036100018B81FFFFC0FFE0FF4088
:00000001FF
