:0400000058EF00F0C5
:10000800FACF0EF0FBCF0FF0E9CF10F0EACF11F0E6
:10001800E1CF12F0E2CF13F0D9CF14F0DACF15F018
:10002800F3CF16F0F4CF17F0F6CF18F0F7CF19F09A
:10003800F8CF1AF0F5CF1BF0F2A201D001D017D0FB
:10004800F2A801D001D013D0EEEC02F01C6E1CC057
:1000580007F0086A12EC02F01CC001F005EC03F08E
:100068001CC001F00DEC03F0F29201D000D01BC0CF
:10007800F5FF1AC0F8FF19C0F7FF18C0F6FF17C040
:10008800F4FF16C0F3FF15C0DAFF14C0D9FF13C080
:10009800E2FF12C0E1FF11C0EAFF10C0E9FF0FC084
:1000A800FBFF0EC0FAFF1100BAEF02F0240E1D6E1E
:1000B800E70EE82EFED71D2EFCD7000EF66E000EBA
:1000C800F76E1A0EF86E380EF56E0C00120E1D6ED5
:1000D800F30EE82EFED71D2EFCD7000EF66E000E8E
:1000E800F76E1A0EF86E380EF56E0C00040E1D6EC3
:1000F800950EE82EFED71D2EFCD700D0000EF66E0A
:10010800000EF76E1A0EF86E380EF56E0C00040E1F
:100118001D6E950EE82EFED71D2EFCD700D0000EC2
:10012800F66E000EF76E1A0EF86E380EF56E0C00AD
:10013800040E1D6E950EE82EFED71D2EFCD700D09E
:10014800000EF66E000EF76E1A0EF86E140EF56EAF
:100158000C00040E1D6E950EE82EFED71D2EFCD742
:1001680000D0000EF66E000EF76E1A0EF86E0E0E28
:10017800F56E0C00040E1D6E950EE82EFED71D2E92
:10018800FCD700D0000EF66E000EF76E1A0EF86E51
:10019800060EF56E0C00040E1D6E950EE82EFED7A9
:1001A8001D2EFCD700D0000EF66E000EF76E1A0E4C
:1001B800F86E020EF56E0C00080E1D6E2C0EE82E61
:1001C800FED71D2EFCD700D0000EF66E000EF76E7F
:1001D8001A0EF86E010EF56E0C00080E1D6E2C0E30
:1001E800E82EFED71D2EFCD700D01200000E336E6D
:1001F800000E326E000EF66E000EF76E1A0EF86ED6
:10020800010EF56E0C00CCEC02F025D026C01DF0D6
:1002180027C01EF0000E206E0A0E1F6EBEEC01F005
:10022800300E1D26280E3224D96E000E3320DA6EC9
:100238001DC0DFFF26C01DF027C01EF0000E206E77
:100248000A0E1F6E60EC01F01DC026F01EC027F0DC
:10025800324A332A00D02750800A800F010ED8B4C2
:10026800265CD8B001D001D0D1D700D0FF0E3224FF
:10027800326EFF0E3320336E33AE01D001D002D080
:100288001AD019D0020EF66E000EF76E1A0EF86E1E
:10029800280E3224D96E000E3320DA6EDF50F56E48
:1002A8000C00CCEC02F03206D8A0330633AE01D0F5
:1002B80001D0E8D700D01200216E000E236E215025
:1002C80020AE01D001D009D01F6C201ED8B0202A42
:1002D800216E010E236E215000D01EAE01D001D038
:1002E80007D01D6C1E1ED8B01E2A010E231A00D07E
:1002F800000E256E000E246E20501F10D8B401D0B9
:1003080001D028D0216E010E226E215005D0D89040
:100318001F362036222A00D020AE01D001D0F7D7D0
:1003280001D000D0D890243625361F501D5C2050AF
:100338001E58D8A001D001D006D01F501D5E2050F5
:100348001E5A248000D0D89020321F32222EEAD79D
:1003580001D000D02350D8B401D001D005D0246CEE
:10036800251ED8B0252A00D024C01DF025C01EF0B7
:1003780000D01200216E000E236E21501EAE01D057
:1003880001D009D01D6C1E1ED8B01E2A216E010E88
:10039800236E215000D020AE01D001D005D01F6CB3
:1003A800201ED8B0202A00D020501F10D8B401D069
:1003B80001D024D0216E010E226E215005D0D89094
:1003C8001F362036222A00D020AE01D001D0F7D720
:1003D80001D000D01F501D5C20501E58D8A001D05D
:1003E80001D005D01F501D5E20501E5A00D0D89055
:1003F80020321F32222EEED701D000D02350D8B49D
:1004080001D001D005D01D6C1E1ED8B01E2A00D008
:100418001DC01DF01EC01EF000D0120007C001F064
:1004280008C002F061EC02F001C00AF002C00BF053
:10043800000EF66E000EF76E1A0EF86E010EF56ECF
:100448000C00DDEC02F00A040B10D8A401D001D096
:100458000CD0020EF66E000EF76E1A0EF86E07C07C
:10046800F5FF0C00DDEC02F027D0000E0D6E010E3A
:100478000C6E14D0020EF66E000EF76E1A0EF86EA1
:100488000C500724D96E0D500820DA6EDF50F56E37
:100498000C00DDEC02F00C4A0D2A00D00D50800A49
:1004A800096E0A500C5C0B50800A0958D8A001D07C
:1004B80001D0E0D701D000D0120001C005F002C081
:1004C80006F003D0054A062A00D005C0D9FF06C0A9
:1004D800DAFFDF50D8A401D001D0F4D700D001C092
:1004E80003F002C004F0031E041E034A042A055048
:1004F8000324016E06500420026E00D01200A00EE4
:100508000F010F01266F0F010F01269FD09EF29C4D
:10051800F28EF288F292000E0F010F01256F000E85
:100528000F010F01246F000E0F010F01236F000E42
:10053800956E99689884120083EC02F01BEC03F026
:10054800FAEC02F05AEC00F0CCEC02F0000E1E6E51
:10055800010E1D6E15EC03F037C026F038C027F0E9
:10056800FAEC00F0F3D7F2D758EF00F0366A356AA4
:10057800346A3C0EF66E060EF76E000EF86E090031
:10058800F5CF37F00900F5CF38F00001A0EF02F001
:1005980001D000D0000EF66E000EF76E1A0EF86E3F
:1005A8000800F5CF1DF01DBE01D001D0F3D700D053
:1005B800120001D000D0000EF66E000EF76E1A0E73
:1005C800F86E0800F5CF01F001BE01D001D0F3D7D5
:1005D80000D01200000EF66E000EF76E180EF86EC0
:1005E8000800F5500F0B300F00D01200D59CD59A9B
:1005F800D598D596D580D582D584F28AF294F28E94
:10060800120000D09EA801D001D0FCD701C0ADFFD8
:10061800120000D09EA801D001D0FCD701C01CFF59
:1006280012001DB002D08B9401D08B8412009494D8
:0606380093821200020192
:020000040020DA
:08000000FFFFFFFFFFFFFFFF00
:020000040030CA
:0E0000001D036100018B81FFFFC0FFE0FF4088
:00000001FF
