:040000004AEF00F0D3
:10000800FACF04F0FBCF05F0E9CF06F0EACF07F00E
:10001800E1CF08F0E2CF09F0D9CF0AF0DACF0BF040
:10002800F3CF0CF0F4CF0DF0F6CF0EF0F7CF0FF0C2
:10003800F8CF10F0F5CF11F0000EF66E000EF76E47
:10004800180EF86E0800F5CF02F023EC02F0F292D9
:1000580000D011C0F5FF10C0F8FF0FC0F7FF0EC0A9
:10006800F6FF0DC0F4FF0CC0F3FF0BC0DAFF0AC0A7
:10007800D9FF09C0E2FF08C0E1FF07C0EAFF06C0D8
:10008800E9FF05C0FBFF04C0FAFF1100CBEF05F044
:10009800240E126EE70EE82EFED7122EFCD7000EA5
:1000A800F66E000EF76E1A0EF86E380EF56E0C002E
:1000B800120E126EF30EE82EFED7122EFCD7000E8B
:1000C800F66E000EF76E1A0EF86E380EF56E0C000E
:1000D800040E126E950EE82EFED7122EFCD700D015
:1000E800000EF66E000EF76E1A0EF86E380EF56EEC
:1000F8000C00040E126E950EE82EFED7122EFCD7B9
:1001080000D0000EF66E000EF76E1A0EF86E380E5E
:10011800F56E0C00040E126E950EE82EFED7122E08
:10012800FCD700D0000EF66E000EF76E1A0EF86EB1
:10013800140EF56E0C00040E126E950EE82EFED706
:10014800122EFCD700D0000EF66E000EF76E1A0EB7
:10015800F86E0E0EF56E0C00040E126E950EE82E5B
:10016800FED7122EFCD700D0000EF66E000EF76EEA
:100178001A0EF86E060EF56E0C00040E126E950E31
:10018800E82EFED7122EFCD700D0000EF66E000E19
:10019800F76E1A0EF86E020EF56E0C00080E126E4F
:1001A8002C0EE82EFED7122EFCD700D0000EF66ECD
:1001B800000EF76E1A0EF86E010EF56E0C00080EA2
:1001C800126E2C0EE82EFED7122EFCD700D012008D
:1001D8000F0E206E1AC021F01BC022F01CC023F0A5
:1001E8002028246E04D0D890233222322132242EA3
:1001F800FAD72150286E286601D001D008D0000E09
:100208001A6E000E1B6E000E1C6E80D07FD00F0E73
:10021800206E1DC021F01EC022F01FC023F0202830
:10022800246E04D0D890233222322132242EFAD7D9
:1002380021502A6E2A6601D001D008D0000E1A6E0D
:10024800000E1B6E000E1C6E61D060D02A507B0F12
:1002580028261CC02AF01F502A1A800E2A161B8E28
:100268001E8EFF0E1D16FF0E1E16000E1F16000E08
:10027800256E000E266E000E276E206E070E296E64
:10028800205000D01AA001D001D007D01D5025263B
:100298001E5026221F50272200D0D8901C321B3215
:1002A8001A32D8901D361E361F36292EEBD700D0AD
:1002B800206E090E296E205000D01AA001D001D05E
:1002C80007D01D5025261E5026221F50272200D059
:1002D800D8901C321B321A32D89027322632253257
:1002E800292EEBD700D025C012F026C013F027C066
:1002F80014F028C015F02AC016F0AFEC02F012C0B6
:100308001AF013C01BF014C01CF000D012000F0E1E
:10031800166E12C017F013C018F014C019F0162882
:100328001A6E04D0D8901932183217321A2EFAD70A
:100338001750206E206601D001D00AD0000E126E30
:10034800000E136E000E146E000E156E77D076D068
:10035800170E166E12C017F013C018F014C019F05B
:1003680016281A6E04D0D8901932183217321A2E5D
:10037800FAD717501B6E138EFF0E1216FF0E1316A8
:10038800000E141612501C6E13501D6E14501E6E63
:100398001F6A8E0E205E20AE01D001D01BD02050E7
:1003A800800A8F0FD8B001D001D00BD0000E126E8A
:1003B800000E136E000E146E000E156E3FD03ED068
:1003C80000D0D8901F321E321D321C32203EF9D781
:1003D8001ED01DD0170E206401D001D012D0000EFF
:1003E800126E000E136E000E146E000E156E26D0DF
:1003F80025D007D0D8901C361D361E361F3620064D
:1004080000D0206601D001D0F5D701D000D01B5014
:10041800D8B401D001D009D01F1E1E1E1D1E1C6C91
:10042800000E1D221E221F2200D01CC012F01DC06B
:1004380013F01EC014F01FC015F000D012000250B7
:100448000F0B026E73D086D085D0000EF66E000EAC
:10045800F76E1A0EF86E100EF56E0C00080E036E8D
:100468002C0EE82EFED7032EFCD700D0ACEC05F0FE
:1004780071D0000EF66E000EF76E1A0EF86E140E9E
:10048800F56E0C00080E036E2C0EE82EFED7032E18
:10049800FCD700D0ACEC05F05DD0000EF66E000E77
:1004A800F76E1A0EF86E010EF56E0C00080E036E4C
:1004B8002C0EE82EFED7032EFCD700D0ACEC05F0AE
:1004C800000EF66E000EF76E1A0EF86E020EF56E3E
:1004D8000C00080E036E2C0EE82EFED7032EFCD758
:1004E80000D0ACEC05F036D0000EF66E000EF76EBC
:1004F8001A0EF86EC00EF56E0C00080E036E2C0E68
:10050800E82EFED7032EFCD700D0ACEC05F022D0A5
:10051800020EF66E000EF76E1A0EF86E0250300FCD
:10052800F56E0C00ACEC05F015D014D002500A0A98
:10053800D8B410D0010AD8B40DD0070AD8B485D7DA
:10054800010AD8B496D7030AD8B4A7D7010AD8B4F1
:10055800CBD7DED712001550D8B401D001D008D0BF
:10056800125013101410D8A401D001D010D000D00C
:10057800000E126E000E136E000E146E62D061D063
:1005880006D0152AD89014321332123200D0000E39
:100598001214176E000E1314186EFE0E1414196E32
:1005A800175018101910D8A401D001D0EAD70DD0CF
:1005B8000CD0152A010E1226000E1322000E14224A
:1005C800D89014321332123200D0000E1214176E63
:1005D800000E1314186EFF0E1414196E175018100D
:1005E8001910D8A401D001D0E4D707D006D0150639
:1005F800D89012361336143600D013AE01D001D07D
:10060800F6D715B001D001D002D0139E00D0D890F3
:1006180015321550196E186A176A175012121850A9
:100628001312195014121650D8B401D001D002D0A8
:10063800148E00D012C012F013C013F014C014F0BE
:1006480000D0120051EC05F04CEC00F09BEC05F0EA
:10065800BDEC05F000D0000E136E000E126E6FECAC
:1006680005F01A6E85EC05F01AC030F01BC031F0A9
:100678001CC032F030C012F031C013F032C014F098
:100688008BEC01F01250216EF8EC04F030C01AF037
:1006980031C01BF032C01CF0000E1D6E000E1E6E25
:1006A800000E1F6EECEC00F01AC030F01BC031F0E9
:1006B8001CC032F030C012F031C013F032C014F058
:1006C8008BEC01F012C021F013C022F08EEC03F085
:1006D800800E126E320E136E430E146E30C015F07B
:1006E80031C016F032C017F0A6EC04F0D8B001D033
:1006F80001D002D0868002D0869000D02F6E640E82
:10070800126E2F5031EC05F09E9C02D001D0A3D779
:100718004AEF00F0000E2E6E000E2D6E000EF66EE3
:10072800000EF76E1A0EF86E010EF56E0C009BECBB
:1007380005F025D021C012F022C013F0000E156E6E
:100748000A0E146E52EC04F0300E1226230E2D24DD
:10075800D96E000E2E20DA6E12C0DFFF21C012F013
:1007680022C013F0000E156E0A0E146EF4EC03F09E
:1007780012C021F013C022F02D4A2E2A00D0225098
:10078800800A800F010ED8B4215CD8B001D001D006
:10079800D1D700D0FF0E2D242D6EFF0E2E202E6EE9
:1007A8002EAE01D001D002D01AD019D0020EF66EAA
:1007B800000EF76E1A0EF86E230E2D24D96E000E59
:1007C8002E20DA6EDF50F56E0C009BEC05F02D063E
:1007D800D8A02E062EAE01D001D0E8D700D0120046
:1007E800166E000E186E165015AE01D001D009D045
:1007F800146C151ED8B0152A166E010E186E1650F8
:1008080000D013AE01D001D007D0126C131ED8B09F
:10081800132A010E181A00D0000E1A6E000E196E57
:1008280015501410D8B401D001D028D0166E010E7E
:10083800176E165005D0D89014361536172A00D0E2
:1008480015AE01D001D0F7D701D000D0D890193615
:100858001A361450125C15501358D8A001D001D084
:1008680006D01450125E1550135A198000D0D89033
:1008780015321432172EEAD701D000D01850D8B448
:1008880001D001D005D0196C1A1ED8B01A2A00D090
:1008980019C012F01AC013F000D01200166E000E24
:1008A800186E165013AE01D001D009D0126C131E69
:1008B800D8B0132A166E010E186E165000D015AE59
:1008C80001D001D005D0146C151ED8B0152A00D05F
:1008D80015501410D8B401D001D024D0166E010ED2
:1008E800176E165005D0D89014361536172A00D032
:1008F80015AE01D001D0F7D701D000D01450125C4A
:1009080015501358D8A001D001D005D01450125E4C
:100918001550135A00D0D89015321432172EEED72E
:1009280001D000D01850D8B401D001D005D0126C35
:10093800131ED8B0132A00D012C012F013C013F03F
:1009480000D0120014AE01D001D017D012C018F098
:1009580013C019F014C01AF0181E191E1A1E182AEE
:10096800000E19221A22000E1824126E000E1920E9
:10097800136E800E1A20146E00D017AE01D001D06D
:1009880017D015C018F016C019F017C01AF0181EA5
:10099800191E1A1E182A000E19221A22000E1824CF
:1009A800156E000E1920166E800E1A20176E00D0D4
:1009B800000E121A000E131A800E141A000E151AC1
:1009C800000E161A800E171A1550125C165013587E
:1009D80017501458D8B001D001D002D0D89003D005
:1009E800D88001D000D01200C58000D09EA601D0CA
:1009F80001D0FCD79E96900EC96E00D0C5BC01D020
:100A080001D0FCD701D000D09EA601D001D0FCD7E0
:100A18009E96400EC96E00D0C5BC01D001D0FCD74F
:100A280001D000D09EA601D001D0FCD79E9621C04F
:100A3800C9FF00D0C5BC01D001D0FCD701D000D07F
:100A48009EA601D001D0FCD79E96C58400D09EA654
:100A580001D001D0FCD79E961200000E176E000E32
:100A6800166E0AD0040E136E950EE82EFED7132EBE
:100A7800FCD700D0164A172A1250136E146A175062
:100A8800800A156E1350165C1450800A1558D8A0A9
:100A980001D001D0E7D700D01200A00E0F010F013E
:100AA800266F0F010F01269FD09EF29CF28EF288CE
:100AB800F292000E0F010F01256F000E0F010F01BA
:100AC800246F000E0F010F01236F000E956E9968B9
:100AD800000E986E1200C29012C014F0144614460C
:100AE800C2501418830B1418C26EC280C28200D080
:100AF800C2B201D001D0FCD7C292C290C45000D07B
:100B080012001A50126E136A146A1D6E8E0E156E3C
:100B18001D501E6E000E166E1E50AFEC02F012C075
:100B28001AF013C01BF014C01CF000D0120001D042
:100B380000D0000EF66E000EF76E1A0EF86E080062
:100B4800F5CF12F012BE01D001D0F3D700D01200B9
:100B580001D000D0000EF66E000EF76E1A0EF86E79
:100B68000800F5CF01F001BE01D001D0F3D700D0C5
:100B78001200000EC76E000EC66EC68AC650F00B75
:100B88000809C66E000EC56E1A0EC86E1200356AC8
:0A0B9800346A336A000126EF03F00F
:020000040020DA
:08000000FFFFFFFFFFFFFFFF00
:020000040030CA
:0E0000001D036100018B81FFFFC0FFE0FF4088
:00000001FF
