:020000040000FA
:04000000D5EF0CF03C
:101000000048656C6C6F000020EE3CF010EE14F0B0
:101010000F0EDBCFE3FFE806FCE2000E3A6E240E73
:101020003A24D96EDA6A000EDA22000EDF6E3A2A0E
:10103000130E3A641EEF08F020EF08F00FEF08F0EF
:10104000EBEC0CF00BEC09F03AEC0DF053EC0DF07E
:101050003CEC0CF059EC0CF0000E096E000EDCECD0
:101060000AF0010E086E100E096E9FEC0AF0B40E25
:101070000F6E500E106E0A0E8FEC0CF0000E3A6ED2
:10108000240E3A24D96EDA6A000EDA223A5076EC4F
:101090000CF0DF6E3A2A130E3A6451EF08F053EF6A
:1010A00008F040EF08F0010E096E010EDCEC0AF0CA
:1010B000240E086E000E096E9FEC0AF02F0E3064AD
:1010C00064EF08F066EF08F08EEF08F03A0E30603B
:1010D0006CEF08F06EEF08F08EEF08F02F0E316421
:1010E00074EF08F076EF08F08EEF08F03A0E3160FA
:1010F0007CEF08F07EEF08F08EEF08F02F0E3264E0
:1011000084EF08F086EF08F08EEF08F0390E3264B5
:101110008CEF08F08EEF08F092EF08F0000E3B6EB7
:10112000A8EF08F031500A0DF3CF13F03050640DE2
:10113000F35013243224300F3B6E630E3B64A3EF55
:1011400008F0A5EF08F0A7EF08F08EEF08F03B2AB3
:101150003BC001F0026A000E046E640E036EE5EC03
:1011600009F00150300F206E000E046E640E036E05
:101170003BC001F0026AE5EC09F001503B5C386EBF
:101180000250D8A00228396A395E38C001F039C04F
:1011900002F0000E046E0A0E036EE5EC09F0015039
:1011A000300F216E000E046E640E036E3BC001F022
:1011B000026AE5EC09F001503B5C386E0250D8A0A1
:1011C0000228396A395E3BC001F0026A000E046EE3
:1011D000640E036EE5EC09F001500008136E38C090
:1011E00001F039C002F0000E046E0A0E036EE5EC49
:1011F00009F00150135C3B24300F226E140E0C6E6C
:10120000000E0D6E100E0E6E000E01EC0CF007EFCE
:1012100009F000EF00F0000E096E000E906E1F0E38
:10122000916E000E996E000E9A6E919A918C919823
:10123000040EA7EC0CF091880C0EA7EC0CF032EF2A
:1012400009F0092A0C0EA7EC0CF0C80E09642BEF6C
:1012500009F02DEF09F032EF09F08B828F808B942B
:10126000000E096E1FEC0CF00009D8B43AEF09F03B
:101270003CEF09F021EF09F00F0E056E210E066E0E
:10128000270E53EC0BF0000E056E220E066E000EBC
:1012900053EC0BF0000E056E240E066E000E53ECA0
:1012A0000BF07B0E056E400E066E000E53EC0BF03D
:1012B000000E056E410E066E280E53EC0BF0800EEC
:1012C000056E420E066E000E53EC0BF0000E056E1E
:1012D000430E066E280E53EC0BF0800E01EC0DF061
:1012E0009C0E01EC0DF0A00E01EC0DF0700E056EE1
:1012F000020EB4EC0BF012000E6E0EC001F0026A8A
:10130000000E046E060E036EE5EC09F00950280D80
:10131000F3CF0AF0F4CF0BF001500A240C6E025008
:101320000B200D6E0D50056E240E066E0C5053EC06
:101330000BF0B9EF09F0FD0E01EC0DF0E4EF09F050
:10134000FC0E01EC0DF0E4EF09F0FB0E01EC0DF0EA
:10135000E4EF09F0FA0E01EC0DF0E4EF09F0F90EFC
:1013600001EC0DF0E4EF09F0F80E01EC0DF0E4EF04
:1013700009F00EC001F0026A000E046E060E036E44
:1013800047EC0AF00250000AD8B4C9EF09F0E4EFC4
:1013900009F00150000AD8B49BEF09F0010AD8B453
:1013A000A0EF09F0030AD8B4A5EF09F0010AD8B4F8
:1013B000AAEF09F0070AD8B4AFEF09F0010AD8B4D0
:1013C000B4EF09F0E4EF09F01200000E066E04BE5F
:1013D000EEEF09F0ECEF09F0F4EF09F0036C041EF6
:1013E000D8B0042A010E066E02BEFBEF09F0F9EF39
:1013F00009F001EF0AF0016C021ED8B0022A010EBA
:10140000061A000E086E000E076E03500410D8B4C2
:101410000CEF0AF00EEF0AF036EF0AF0010E056E3F
:1014200016EF0AF0D89003360436052A04AE1BEFF7
:101430000AF01DEF0AF012EF0AF0D89007360836CE
:101440000350015C04500258D8A029EF0AF02BEF9A
:101450000AF030EF0AF00350015E0450025A078090
:10146000D89004320332052E1DEF0AF00650D8B48E
:101470003CEF0AF03EEF0AF042EF0AF0076C081E5C
:10148000D8B0082A07C001F008C002F01200000E10
:10149000066E02BE50EF0AF04EEF0AF056EF0AF069
:1014A000016C021ED8B0022A010E066E04BE5DEF6A
:1014B0000AF05BEF0AF061EF0AF0036C041ED8B08B
:1014C000042A03500410D8B468EF0AF06AEF0AF057
:1014D0008EEF0AF0010E056E72EF0AF0D890033617
:1014E0000436052A04AE77EF0AF079EF0AF06EEFC2
:1014F0000AF00350015C04500258D8A082EF0AF0B1
:1015000084EF0AF088EF0AF00350015E0450025A9B
:10151000D89004320332052E79EF0AF00650D8B481
:1015200094EF0AF096EF0AF09AEF0AF0016C021EAF
:10153000D8B0022A01C001F002C002F01200C2EFCE
:101540000AF000F0C00E056E08C0F6FF09C0F7FFF4
:10155000000EF86E0F0EF76403D00800F55005D0AA
:10156000F6CFE1FFF7CFE2FFE750E00FB4EC0BF06E
:101570000009D8B4BEEF0AF0C0EF0AF0A1EF0AF0FC
:10158000084A092A08C0F6FF09C0F7FF000EF86EE6
:101590000F0EF76403D00800F55005D0F6CFE1FF39
:1015A000F7CFE2FFE7500009D8A4D9EF0AF0DBEF4C
:1015B0000AF0A2EF0AF012000C6E7B0E0E6E000E07
:1015C0000D6E0F0E0C64E7EF0AF0E9EF0AF0EBEF97
:1015D0000AF0000E0C6E270E0964F1EF0AF0F3EF2B
:1015E0000AF0F5EF0AF0000E096E0C50280DF3CF4B
:1015F0000AF0F4CF0BF009500A26000E0B220D5012
:101600000A240D6E0E500B200E6E08EF0BF000F04A
:101610000E50056E240E066E0D5053EC0BF00009B3
:10162000D8B415EF0BF017EF0BF007EF0BF012002B
:10163000000E026E020E046E48EF0BF09968918066
:101640009196919200F087CF03F09182918603509A
:10165000030B036E030E0318D8B431EF0BF033EF16
:101660000BF046EF0BF0022A0C0EA7EC0CF0F90E73
:1016700002643DEF0BF03FEF0BF048EF0BF08B9463
:101680008B828F80000E046E48EF0BF0010E046E0B
:10169000020E0418D8B44FEF0BF051EF0BF01EEF11
:1016A0000BF004501200076E000E086E18EC0BF0E1
:1016B000E806D8A45EEF0BF060EF0BF088EF0BF0BC
:1016C0000C0EA7EC0CF0075013EC0DF018EC0BF01F
:1016D000E806D8A46EEF0BF070EF0BF088EF0BF07C
:1016E0000C0EA7EC0CF0055013EC0DF018EC0BF001
:1016F000E806D8A47EEF0BF080EF0BF088EF0BF03C
:101700000C0EA7EC0CF0065020EC0DF0010E086E4C
:101710000850120001C005F002C006F0A6EF0BF061
:1017200005C0D9FF06C0DAFFDF506A6EA1AA9BEFA1
:101730000BF09DEF0BF096EF0BF0A19A05C0D9FFCF
:1017400006C0DAFF6ACFDFFF054A062A0306D8A0E3
:101750000406032806E10428D8A4B1EF0BF0B3EF88
:101760000BF090EF0BF01200066E000E076E18ECF7
:101770000BF0E806D8A4BFEF0BF0C1EF0BF0D9EFE8
:101780000BF00C0EA7EC0CF0065013EC0DF018EC5F
:101790000BF0E806D8A4CFEF0BF0D1EF0BF0D9EFA8
:1017A0000BF00C0EA7EC0CF0055020EC0DF0010E28
:1017B000076E07501200086E000E096E000E0A6ECA
:1017C000000E0B6E020E096E08C00AF007C00BF087
:1017D000BEEC0CF00009D8A4F0EF0BF0F2EF0BF028
:1017E000E8EF0BF04DEC0DF08E9E090E016E000E31
:1017F000026E000E046E030E036E8AEC0BF08E8EEA
:1018000012000F6E000E106E000E106E15EF0CF031
:1018100010500C24D96E000E0D20DA6EDF50076ECA
:101820000F501024DBEC0BF0102A0E50105CD8A0E7
:101830001CEF0CF01EEF0CF008EF0CF01200996892
:1018400091809196919200F000F000F087CF01F026
:10185000918291860150030B030AD8A432EF0CF059
:1018600034EF0CF038EF0CF0010E016E3AEF0CF093
:10187000000E016E01501200000E056E240E066E61
:10188000000E53EC0BF0000E0A6E000E096EC00E37
:10189000056E000EB4EC0BF0094A0A2A800E0A18F5
:1018A0000910D8A456EF0CF058EF0CF047EF0CF0ED
:1018B0001200800E056E240E066E000E53EC0BF027
:1018C000800E0A6E000E096EC00E056E000EB4EC9E
:1018D0000BF0094A0A2AF80E0A180910D8A473EF67
:1018E0000CF075EF0CF064EF0CF01200036EBEEC20
:1018F0000CF00009D8A47FEF0CF081EF0CF077EF2B
:101900000CF08E9E030E2DEC0DF003502DEC0DF01F
:10191000000E2DEC0DF0046E8E8E04501200116E30
:10192000000E126E000E126E9DEF0CF0115012247C
:10193000096E0F507CEC09F0122A1050125CD8A0EE
:10194000A4EF0CF0A6EF0CF096EF0CF01200016E75
:10195000B5EF0CF000F000F000F000F000F000F047
:1019600000F000F000F000F001060150D8A4BBEF39
:101970000CF0BDEF0CF0AAEF0CF012008E9E050EDD
:101980002DEC0DF0000E2DEC0DF0010B026E8E8E85
:101990000250D8B4CEEF0CF0D0EF0CF0D3EF0CF037
:1019A000010ED4EF0CF0000E12008A0EF66E1A0E25
:1019B000F76E000EF86E00EE3CF010EE10F009002D
:1019C000F5CFEEFFE550E150FAE14E6A4D6A4C6A00
:1019D000000104EF08F0A00E0F01266F030E256F23
:1019E000080E246F000E236F8B948B928F9092942D
:1019F00092969298929A949494929890F19E538D84
:101A00001200066E18EC0BF0E806D8A40AEF0DF0F1
:101A10000CEF0DF012EF0DF00C0EA7EC0CF00650D1
:101A200020EC0DF01200016E01C090FF000E996EC7
:101A300091909196919400F000F09184918612001B
:101A4000016E01C090FF000E996E91809196919465
:101A500000F000F0918491861200016E01C06AFFCF
:101A6000A1AA35EF0DF037EF0DF030EF0DF0A19A90
:101A70006A501200000E686E310E676E9598959C44
:101A8000979E8E8EA19A678A1200546573742045C2
:101A90004550524F4D20000000008E9E060E2DEC4A
:081AA0000DF08E8E1200120001
:020000040020DA
:08000000FFFFFFFFFFFFFFFF00
:020000040030CA
:0E00000015136100308081FFFFC0FFE0FF405C
:00000001FF
