:04000000E5EFFEF03A
:020000040001F9
:10FDCA000001FEEFFEF0A00E0F010F01266F000EDC
:10FDDA000F010F01256F000E0F010F01246F000E96
:10FDEA000F010F01236F000E956E99689886988807
:10FDFA001200E8ECFEF0016E010E186E0150016E61
:10FE0A00010E196E0150070E136ED00E126E400EBF
:10FE1A00026E9C0E036E000E046E000E056E800EBE
:10FE2A00066E380E076E010E086E000E096E000E81
:10FE3A000A6E710E0B6E020E0C6E000E0D6E12C063
:10FE4A000EF013C00FF0106A116A016E010E1A6EDD
:10FE5A00015000D086A601D001D022D086A801D0B8
:10FE6A0001D01ED087A801D001D002D08C8E01D03B
:10FE7A008C9E87AA01D001D002D08C8C01D08C9C98
:10FE8A0087AC01D001D002D08C8A01D08C9A87AE7F
:10FE9A0001D001D002D08C882BD08C9829D028D0C0
:10FEAA0086A601D001D010D01804D8A401D001D060
:10FEBA0005D0016E000E186E01501AD0016E010EA7
:10FECA00186E015015D014D086A801D001D010D0D8
:10FEDA001950040AD8A401D001D005D0016E010E30
:10FEEA00196E015005D0192A03D002D001D000D0D2
:10FEFA001804D8A401D001D010D01A50800AD8A46E
:10FF0A0001D001D005D0016E010E1A6E015014D035
:10FF1A001A501A241A6E10D00FD01A04D8A401D07D
:10FF2A0001D005D0016E800E1A6E015005D0D8900E
:10FF3A001A301A6E01D000D01AC08CFF000E146E4F
:10FF4A00000E156E000E166E000E176E640E145C0F
:10FF5A00000E1558000E1658000E1758D8A001D0DA
:10FF6A0001D022D077D776D71FD0120E016EF30EAA
:10FF7A00E82EFED7012EFCD7240E016EE70EE82EDE
:10FF8A00FED7012EFCD7480E016ECF0EE82EFED703
:10FF9A00012EFCD7900E016E9F0EE82EFED7012E81
:10FFAA00FCD710D00FD00ED01950010AD8B4DDD723
:10FFBA00030AD8B4E1D7010AD8B4E5D7070AD8B4F6
:10FFCA00E9D700D0010E1426000E1522000E1622C3
:10FFDA00000E1722640E145C000E1558000E1658F7
:10FFEA00000E1758D8A001D001D0DED733D732D7A8
:06FFFA0031D700EF00F01A
:020000040020DA
:08000000FFFFFFFFFFFFFFFF00
:020000040030CA
:0E0000001D036100018B81FFFFC0FFE0FF4088
:00000001FF
