:0400000059EFFDF0C7
:020000040001F9
:10FAAE00928012000001B1EFFEF0000EF66E000E15
:10FABE00F76E1A0EF86E010EF56E0C0091ECFDF05D
:10FACE001200020EF66E000EF76E1A0EF86E07C0DA
:10FADE00F5FF0C0091ECFDF01200000EC76E000E4B
:10FAEE00C66EC68AC650F00B0809C66E000EC56EED
:10FAFE001A0EC86E12000F010F012581C198C08E1B
:10FB0E00C050C70B1809C06EC050F80B0509C06E67
:10FB1E00C2801200000E026E0A0E016EA8ECFDF0FD
:10FB2E0001D000D0000EF66E000EF76E1A0EF86EB3
:10FB3E000800F5CF06F006BE01D001D0F3D700D0F5
:10FB4E001200000E056E000E046E0AD0040E036E37
:10FB5E00950EE82EFED7032EFCD700D0044A052AB8
:10FB6E000150045C02500558D8A001D001D0EED748
:10FB7E0000D01200C28200D0C2B201D001D0FCD798
:10FB8E00C4CF07F0C3CF08F00750046E036A0850C5
:10FB9E000324056E000E0420066E05C001F006C09B
:10FBAE0002F000D0120007C001F008C002F0130EE0
:10FBBE00046E880E036EF5ECFDF00C0E096ED890F7
:10FBCE0002320132092EFBD701C007F002C008F045
:10FBDE0007C007F008C008F000D01200000E066E35
:10FBEE00000E056E00D001A001D001D005D003504B
:10FBFE0005260450062200D0D89003360436D8903D
:10FC0E000232013202500110D8A401D001D0EBD73C
:10FC1E0005C001F006C002F0120004500310D8B463
:10FC2E0001D001D023D0056E010E066E055005D011
:10FC3E00D89003360436062A00D004AE01D001D087
:10FC4E00F7D701D000D00350015C04500258D8A061
:10FC5E0001D001D005D00350015E0450025A00D0ED
:10FC6E00D89004320332062EEED700D001C001F038
:10FC7E0002C002F01200000E076E000E066E045057
:10FC8E000310D8B401D001D027D0056E010E086E36
:10FC9E00055005D0D89003360436082A00D004AE9D
:10FCAE0001D001D0F7D701D000D0D8900636073654
:10FCBE000350015C04500258D8A001D001D006D0E8
:10FCCE000350015E0450025A068000D0D8900432D0
:10FCDE000332082EEAD700D006C001F007C002F0AA
:10FCEE001200C58000D09EA601D001D0FCD79E96F2
:10FCFE00900EC96E00D0C5BC01D001D0FCD701D08A
:10FD0E0000D09EA601D001D0FCD79E96400EC96EA3
:10FD1E0000D0C5BC01D001D0FCD701D000D09EA62A
:10FD2E0001D001D0FCD79E9601C0C9FF00D0C5BC42
:10FD3E0001D001D0FCD701D000D09EA601D001D0B9
:10FD4E00FCD79E96C58400D09EA601D001D0FCD7CC
:10FD5E009E96120057ECFDF072ECFFF074ECFDF085
:10FD6E0082ECFDF000D0C1ECFDF001C016F002C037
:10FD7E0017F016C012F017C013F0040E146ED890C0
:10FD8E0013321232142EFBD71250156E16C007F016
:10FD9E0017C008F0DAECFDF007C016F008C017F037
:10FDAE0016C009F017C00AF0EBECFEF015C001F01A
:10FDBE0078ECFEF0000E026E640E016EA8ECFDF003
:10FDCE00D2D7D1D700EF00F00B6E000E0C6E0B5099
:10FDDE000B6E000E0D6E0B500B6E000E0E6E0B505A
:10FDEE000B6E000E0F6E0B50000E116E000E106E8D
:10FDFE005CECFDF009C001F00AC002F0030E046EC7
:10FE0E00E80E036E42ECFEF001500C6E09C001F0DC
:10FE1E000AC002F0030E046EE80E036E14ECFEF040
:10FE2E0001C010F002C011F010C001F011C002F0BC
:10FE3E00000E046E640E036E42ECFEF001500F6E67
:10FE4E0009C001F00AC002F0000E046E640E036ECB
:10FE5E0014ECFEF001C010F002C011F010C001F061
:10FE6E0011C002F0000E046E0A0E036E42ECFEF09C
:10FE7E0001500E6E10C001F011C002F0000E046EA3
:10FE8E000A0E036E14ECFEF001500D6E0C50300F86
:10FE9E00076E68ECFDF00B6E2E0E076E0B5068ECC5
:10FEAE00FDF00F50300F076E68ECFDF00E50300F66
:10FEBE00076E68ECFDF00D50300F076E68ECFDF02C
:10FECE00000EF66E000EF76E1A0EF86E020EF56E3E
:10FEDE000C0000D01200000E026E640E016EA8EC33
:10FEEE00FDF0000EF66E000EF76E1A0EF86E380E5E
:10FEFE00F56E0C00000E026E050E016EA8ECFDF004
:10FF0E00000EF66E000EF76E1A0EF86E380EF56EC7
:10FF1E000C00000E026E010E016EA8ECFDF0000E3C
:10FF2E00F66E000EF76E1A0EF86E380EF56E0C00A9
:10FF3E00000E026E010E016EA8ECFDF0000EF66EC4
:10FF4E00000EF76E1A0EF86E380EF56E0C00000EDF
:10FF5E00026E010E016EA8ECFDF0000EF66E000EA4
:10FF6E00F76E1A0EF86E140EF56E0C00000E026E81
:10FF7E00010E016EA8ECFDF0000EF66E000EF76E8F
:10FF8E001A0EF86E0E0EF56E0C00000E026E010EBD
:10FF9E00016EA8ECFDF0000EF66E000EF76E1A0E56
:10FFAE00F86E060EF56E0C00000E026E010E016E5E
:10FFBE00A8ECFDF0000EF66E000EF76E1A0EF86E3F
:10FFCE00020EF56E0C00000E026E020E016EA8EC13
:10FFDE00FDF0000EF66E000EF76E1A0EF86E010EA4
:10FFEE00F56E0C00000E026E020E016EA8ECFDF016
:02FFFE001200EF
:020000040020DA
:08000000FFFFFFFFFFFFFFFF00
:020000040030CA
:0E0000001D036100018B81FFFFC0FFE0FF4088
:00000001FF
